{
  "contractName": "customEscrow2",
  "abi": [
    {
      "inputs": [
        {
          "internalType": "address payable",
          "name": "_owner",
          "type": "address"
        },
        {
          "internalType": "address",
          "name": "_token",
          "type": "address"
        },
        {
          "internalType": "uint256",
          "name": "_timeLimitInDays",
          "type": "uint256"
        },
        {
          "internalType": "address payable",
          "name": "_admin",
          "type": "address"
        },
        {
          "internalType": "address payable",
          "name": "_liquidityPool",
          "type": "address"
        },
        {
          "internalType": "address payable",
          "name": "_burnAddress",
          "type": "address"
        }
      ],
      "stateMutability": "nonpayable",
      "type": "constructor"
    },
    {
      "anonymous": false,
      "inputs": [
        {
          "indexed": false,
          "internalType": "uint256",
          "name": "id",
          "type": "uint256"
        },
        {
          "indexed": false,
          "internalType": "address",
          "name": "buyer",
          "type": "address"
        },
        {
          "indexed": false,
          "internalType": "address payable",
          "name": "seller",
          "type": "address"
        },
        {
          "indexed": false,
          "internalType": "bool",
          "name": "payType",
          "type": "bool"
        },
        {
          "indexed": false,
          "internalType": "uint256",
          "name": "paid",
          "type": "uint256"
        },
        {
          "indexed": false,
          "internalType": "uint256",
          "name": "start",
          "type": "uint256"
        },
        {
          "indexed": false,
          "internalType": "uint256",
          "name": "timeInDays",
          "type": "uint256"
        },
        {
          "indexed": false,
          "internalType": "enum customEscrow2.State",
          "name": "currentState",
          "type": "uint8"
        },
        {
          "indexed": false,
          "internalType": "bytes32",
          "name": "message",
          "type": "bytes32"
        }
      ],
      "name": "EscrowCreated",
      "type": "event"
    },
    {
      "anonymous": false,
      "inputs": [
        {
          "indexed": true,
          "internalType": "uint256",
          "name": "id",
          "type": "uint256"
        },
        {
          "indexed": true,
          "internalType": "enum customEscrow2.State",
          "name": "_state",
          "type": "uint8"
        }
      ],
      "name": "StateChanged",
      "type": "event"
    },
    {
      "inputs": [
        {
          "internalType": "address",
          "name": "",
          "type": "address"
        }
      ],
      "name": "AddressEscrowMap",
      "outputs": [
        {
          "internalType": "uint256",
          "name": "",
          "type": "uint256"
        }
      ],
      "stateMutability": "view",
      "type": "function"
    },
    {
      "inputs": [],
      "name": "PoolCut",
      "outputs": [
        {
          "internalType": "uint8",
          "name": "",
          "type": "uint8"
        }
      ],
      "stateMutability": "view",
      "type": "function"
    },
    {
      "inputs": [],
      "name": "admin",
      "outputs": [
        {
          "internalType": "address payable",
          "name": "",
          "type": "address"
        }
      ],
      "stateMutability": "view",
      "type": "function"
    },
    {
      "inputs": [],
      "name": "adminCut",
      "outputs": [
        {
          "internalType": "uint8",
          "name": "",
          "type": "uint8"
        }
      ],
      "stateMutability": "view",
      "type": "function"
    },
    {
      "inputs": [
        {
          "internalType": "uint256",
          "name": "",
          "type": "uint256"
        }
      ],
      "name": "approvedForWithdraw",
      "outputs": [
        {
          "internalType": "bool",
          "name": "",
          "type": "bool"
        }
      ],
      "stateMutability": "view",
      "type": "function"
    },
    {
      "inputs": [],
      "name": "burnAddress",
      "outputs": [
        {
          "internalType": "address payable",
          "name": "",
          "type": "address"
        }
      ],
      "stateMutability": "view",
      "type": "function"
    },
    {
      "inputs": [],
      "name": "burnCut",
      "outputs": [
        {
          "internalType": "uint8",
          "name": "",
          "type": "uint8"
        }
      ],
      "stateMutability": "view",
      "type": "function"
    },
    {
      "inputs": [
        {
          "internalType": "uint256",
          "name": "",
          "type": "uint256"
        }
      ],
      "name": "disputedEscrows",
      "outputs": [
        {
          "internalType": "uint256",
          "name": "",
          "type": "uint256"
        }
      ],
      "stateMutability": "view",
      "type": "function"
    },
    {
      "inputs": [
        {
          "internalType": "uint256",
          "name": "",
          "type": "uint256"
        }
      ],
      "name": "disputedRaisedBy",
      "outputs": [
        {
          "internalType": "address",
          "name": "",
          "type": "address"
        }
      ],
      "stateMutability": "view",
      "type": "function"
    },
    {
      "inputs": [
        {
          "internalType": "uint256",
          "name": "",
          "type": "uint256"
        }
      ],
      "name": "escrowAmtsBNB",
      "outputs": [
        {
          "internalType": "uint256",
          "name": "",
          "type": "uint256"
        }
      ],
      "stateMutability": "view",
      "type": "function"
    },
    {
      "inputs": [
        {
          "internalType": "uint256",
          "name": "",
          "type": "uint256"
        }
      ],
      "name": "escrowAmtsToken",
      "outputs": [
        {
          "internalType": "uint256",
          "name": "",
          "type": "uint256"
        }
      ],
      "stateMutability": "view",
      "type": "function"
    },
    {
      "inputs": [
        {
          "internalType": "uint256",
          "name": "",
          "type": "uint256"
        }
      ],
      "name": "getEscrow",
      "outputs": [
        {
          "internalType": "uint256",
          "name": "id",
          "type": "uint256"
        },
        {
          "internalType": "address",
          "name": "buyer",
          "type": "address"
        },
        {
          "internalType": "address payable",
          "name": "seller",
          "type": "address"
        },
        {
          "internalType": "bool",
          "name": "payType",
          "type": "bool"
        },
        {
          "internalType": "uint256",
          "name": "totalAmt",
          "type": "uint256"
        },
        {
          "internalType": "uint256",
          "name": "amtPaid",
          "type": "uint256"
        },
        {
          "internalType": "bool",
          "name": "sellerConfirmation",
          "type": "bool"
        },
        {
          "internalType": "bool",
          "name": "buyerConfirmation",
          "type": "bool"
        },
        {
          "internalType": "uint256",
          "name": "start",
          "type": "uint256"
        },
        {
          "internalType": "uint256",
          "name": "timeInDays",
          "type": "uint256"
        },
        {
          "internalType": "enum customEscrow2.State",
          "name": "currentState",
          "type": "uint8"
        },
        {
          "internalType": "bytes32",
          "name": "message",
          "type": "bytes32"
        }
      ],
      "stateMutability": "view",
      "type": "function"
    },
    {
      "inputs": [
        {
          "internalType": "uint256",
          "name": "",
          "type": "uint256"
        }
      ],
      "name": "getProposal",
      "outputs": [
        {
          "internalType": "uint256",
          "name": "id",
          "type": "uint256"
        },
        {
          "internalType": "address",
          "name": "buyer",
          "type": "address"
        },
        {
          "internalType": "address payable",
          "name": "seller",
          "type": "address"
        },
        {
          "internalType": "uint256",
          "name": "amt",
          "type": "uint256"
        },
        {
          "internalType": "uint256",
          "name": "time",
          "type": "uint256"
        },
        {
          "internalType": "bool",
          "name": "accepted",
          "type": "bool"
        },
        {
          "internalType": "bool",
          "name": "payType",
          "type": "bool"
        },
        {
          "internalType": "bytes32",
          "name": "email",
          "type": "bytes32"
        }
      ],
      "stateMutability": "view",
      "type": "function"
    },
    {
      "inputs": [],
      "name": "liquidityPool",
      "outputs": [
        {
          "internalType": "address payable",
          "name": "",
          "type": "address"
        }
      ],
      "stateMutability": "view",
      "type": "function"
    },
    {
      "inputs": [],
      "name": "owner",
      "outputs": [
        {
          "internalType": "address payable",
          "name": "",
          "type": "address"
        }
      ],
      "stateMutability": "view",
      "type": "function"
    },
    {
      "inputs": [],
      "name": "ownerCut",
      "outputs": [
        {
          "internalType": "uint8",
          "name": "",
          "type": "uint8"
        }
      ],
      "stateMutability": "view",
      "type": "function"
    },
    {
      "inputs": [],
      "name": "proposalCount",
      "outputs": [
        {
          "internalType": "uint256",
          "name": "",
          "type": "uint256"
        }
      ],
      "stateMutability": "view",
      "type": "function"
    },
    {
      "inputs": [],
      "name": "timeLimitInDays",
      "outputs": [
        {
          "internalType": "uint256",
          "name": "",
          "type": "uint256"
        }
      ],
      "stateMutability": "view",
      "type": "function"
    },
    {
      "inputs": [],
      "name": "token",
      "outputs": [
        {
          "internalType": "address",
          "name": "",
          "type": "address"
        }
      ],
      "stateMutability": "view",
      "type": "function"
    },
    {
      "inputs": [],
      "name": "totalEscrows",
      "outputs": [
        {
          "internalType": "uint256",
          "name": "",
          "type": "uint256"
        }
      ],
      "stateMutability": "view",
      "type": "function"
    },
    {
      "stateMutability": "payable",
      "type": "receive"
    },
    {
      "inputs": [
        {
          "internalType": "uint8",
          "name": "fees",
          "type": "uint8"
        },
        {
          "internalType": "uint8",
          "name": "_admin",
          "type": "uint8"
        },
        {
          "internalType": "uint8",
          "name": "_poolCut",
          "type": "uint8"
        },
        {
          "internalType": "uint8",
          "name": "_burnCut",
          "type": "uint8"
        }
      ],
      "name": "setFeesAdminPoolCut",
      "outputs": [],
      "stateMutability": "nonpayable",
      "type": "function"
    },
    {
      "inputs": [
        {
          "internalType": "uint256",
          "name": "amt",
          "type": "uint256"
        },
        {
          "internalType": "uint256",
          "name": "time",
          "type": "uint256"
        },
        {
          "internalType": "bool",
          "name": "payType",
          "type": "bool"
        },
        {
          "internalType": "bytes32",
          "name": "email",
          "type": "bytes32"
        }
      ],
      "name": "createProposal",
      "outputs": [],
      "stateMutability": "payable",
      "type": "function"
    },
    {
      "inputs": [
        {
          "internalType": "uint256",
          "name": "_id",
          "type": "uint256"
        }
      ],
      "name": "acceptProposal",
      "outputs": [],
      "stateMutability": "nonpayable",
      "type": "function"
    },
    {
      "inputs": [
        {
          "internalType": "uint256",
          "name": "id",
          "type": "uint256"
        },
        {
          "internalType": "bytes32",
          "name": "_message",
          "type": "bytes32"
        }
      ],
      "name": "addMessage",
      "outputs": [],
      "stateMutability": "nonpayable",
      "type": "function"
    },
    {
      "inputs": [
        {
          "internalType": "uint256",
          "name": "_id",
          "type": "uint256"
        }
      ],
      "name": "updateSellerStatus",
      "outputs": [],
      "stateMutability": "nonpayable",
      "type": "function"
    },
    {
      "inputs": [
        {
          "internalType": "uint256",
          "name": "_id",
          "type": "uint256"
        }
      ],
      "name": "releasePayment",
      "outputs": [],
      "stateMutability": "nonpayable",
      "type": "function"
    },
    {
      "inputs": [
        {
          "internalType": "uint256",
          "name": "_id",
          "type": "uint256"
        },
        {
          "internalType": "uint256",
          "name": "amt",
          "type": "uint256"
        }
      ],
      "name": "releaseMileStone",
      "outputs": [],
      "stateMutability": "nonpayable",
      "type": "function"
    },
    {
      "inputs": [
        {
          "internalType": "uint256",
          "name": "id",
          "type": "uint256"
        }
      ],
      "name": "raiseDispute",
      "outputs": [],
      "stateMutability": "nonpayable",
      "type": "function"
    },
    {
      "inputs": [
        {
          "internalType": "uint256",
          "name": "id",
          "type": "uint256"
        },
        {
          "internalType": "bool",
          "name": "withdrawParty",
          "type": "bool"
        }
      ],
      "name": "approveForWithdraw",
      "outputs": [],
      "stateMutability": "nonpayable",
      "type": "function"
    },
    {
      "inputs": [
        {
          "internalType": "address",
          "name": "_token",
          "type": "address"
        }
      ],
      "name": "changeToken",
      "outputs": [],
      "stateMutability": "nonpayable",
      "type": "function"
    }
  ],
  "bytecode": "0x60806040523480156200001157600080fd5b5060405162004287380380620042878339818101604052810190620000379190620001db565b856000806101000a81548173ffffffffffffffffffffffffffffffffffffffff021916908373ffffffffffffffffffffffffffffffffffffffff16021790555084600a60006101000a81548173ffffffffffffffffffffffffffffffffffffffff021916908373ffffffffffffffffffffffffffffffffffffffff16021790555080600360006101000a81548173ffffffffffffffffffffffffffffffffffffffff021916908373ffffffffffffffffffffffffffffffffffffffff16021790555082600260006101000a81548173ffffffffffffffffffffffffffffffffffffffff021916908373ffffffffffffffffffffffffffffffffffffffff16021790555081600160006101000a81548173ffffffffffffffffffffffffffffffffffffffff021916908373ffffffffffffffffffffffffffffffffffffffff1602179055506000600e8190555083600f8190555050505050505062000311565b600081519050620001a781620002c3565b92915050565b600081519050620001be81620002dd565b92915050565b600081519050620001d581620002f7565b92915050565b60008060008060008060c08789031215620001f557600080fd5b60006200020589828a01620001ad565b96505060206200021889828a0162000196565b95505060406200022b89828a01620001c4565b94505060606200023e89828a01620001ad565b93505060806200025189828a01620001ad565b92505060a06200026489828a01620001ad565b9150509295509295509295565b60006200027e8262000299565b9050919050565b6000620002928262000299565b9050919050565b600073ffffffffffffffffffffffffffffffffffffffff82169050919050565b6000819050919050565b620002ce8162000271565b8114620002da57600080fd5b50565b620002e88162000285565b8114620002f457600080fd5b50565b6200030281620002b9565b81146200030e57600080fd5b50565b613f6680620003216000396000f3fe6080604052600436106101d15760003560e01c806388685cd9116100f7578063d2e56a2f11610095578063f3cbe7eb11610064578063f3cbe7eb14610700578063f851a4401461072b578063fc0c546a14610756578063fd3fdf23146107815761022e565b8063d2e56a2f1461065a578063da35c66414610683578063e92d9e66146106ae578063f16290b4146106d75761022e565b8063ab64f0fb116100d1578063ab64f0fb14610585578063c7f758a8146105c2578063cf0061b014610606578063cfc70bb2146106315761022e565b806388685cd9146105085780638da5cb5b14610531578063a5c1674e1461055c5761022e565b806363ee7c8d1161016f57806370d5ae051161013e57806370d5ae0514610441578063769f02691461046c5780637d19e5961461049557806383b5ff8b146104dd5761022e565b806363ee7c8d146103a6578063665a11ca146103d157806366829b16146103fc57806366b41900146104255761022e565b806342d48f59116101ab57806342d48f59146102c6578063527c204d1461030357806357416bb71461034057806360c5cc3a1461037d5761022e565b80630c2b4c9c1461023357806333a8a84e1461025e5780633dac4e2f146102895761022e565b3661022e5734600960003373ffffffffffffffffffffffffffffffffffffffff1673ffffffffffffffffffffffffffffffffffffffff168152602001908152602001600020600082825461022591906139af565b92505081905550005b600080fd5b34801561023f57600080fd5b506102486107be565b6040516102559190613798565b60405180910390f35b34801561026a57600080fd5b506102736107c4565b6040516102809190613978565b60405180910390f35b34801561029557600080fd5b506102b060048036038101906102ab91906131ea565b6107d7565b6040516102bd919061361d565b60405180910390f35b3480156102d257600080fd5b506102ed60048036038101906102e89190613198565b6107f7565b6040516102fa9190613798565b60405180910390f35b34801561030f57600080fd5b5061032a600480360381019061032591906131ea565b61080f565b60405161033791906135be565b60405180910390f35b34801561034c57600080fd5b50610367600480360381019061036291906131ea565b610842565b6040516103749190613798565b60405180910390f35b34801561038957600080fd5b506103a4600480360381019061039f91906131ea565b61085a565b005b3480156103b257600080fd5b506103bb610acd565b6040516103c89190613798565b60405180910390f35b3480156103dd57600080fd5b506103e6610ad3565b6040516103f391906135d9565b60405180910390f35b34801561040857600080fd5b50610423600480360381019061041e9190613198565b610af9565b005b61043f600480360381019061043a91906132c7565b610b95565b005b34801561044d57600080fd5b50610456610d42565b60405161046391906135d9565b60405180910390f35b34801561047857600080fd5b50610493600480360381019061048e9190613213565b610d68565b005b3480156104a157600080fd5b506104bc60048036038101906104b791906131ea565b610f59565b6040516104d49c9b9a999897969594939291906137b3565b60405180910390f35b3480156104e957600080fd5b506104f261102d565b6040516104ff9190613978565b60405180910390f35b34801561051457600080fd5b5061052f600480360381019061052a91906131ea565b611040565b005b34801561053d57600080fd5b50610546611a8a565b60405161055391906135d9565b60405180910390f35b34801561056857600080fd5b50610583600480360381019061057e91906131ea565b611aae565b005b34801561059157600080fd5b506105ac60048036038101906105a791906131ea565b611dfe565b6040516105b99190613798565b60405180910390f35b3480156105ce57600080fd5b506105e960048036038101906105e491906131ea565b611e22565b6040516105fd9897969594939291906138fa565b60405180910390f35b34801561061257600080fd5b5061061b611ec4565b6040516106289190613978565b60405180910390f35b34801561063d57600080fd5b506106586004803603810190610653919061328b565b611ed7565b005b34801561066657600080fd5b50610681600480360381019061067c91906131ea565b612312565b005b34801561068f57600080fd5b50610698612641565b6040516106a59190613798565b60405180910390f35b3480156106ba57600080fd5b506106d560048036038101906106d0919061332a565b612647565b005b3480156106e357600080fd5b506106fe60048036038101906106f9919061324f565b612711565b005b34801561070c57600080fd5b50610715612840565b6040516107229190613978565b60405180910390f35b34801561073757600080fd5b50610740612853565b60405161074d91906135d9565b60405180910390f35b34801561076257600080fd5b5061076b612879565b60405161077891906135be565b60405180910390f35b34801561078d57600080fd5b506107a860048036038101906107a391906131ea565b61289f565b6040516107b59190613798565b60405180910390f35b600f5481565b600a60169054906101000a900460ff1681565b600b6020528060005260406000206000915054906101000a900460ff1681565b600d6020528060005260406000206000915090505481565b600c6020528060005260406000206000915054906101000a900473ffffffffffffffffffffffffffffffffffffffff1681565b60086020528060005260406000206000915090505481565b6005600082815260200190815260200160002060050160009054906101000a900460ff16156108be576040517f08c379a00000000000000000000000000000000000000000000000000000000081526004016108b590613738565b60405180910390fd5b336005600083815260200190815260200160002060020160006101000a81548173ffffffffffffffffffffffffffffffffffffffff021916908373ffffffffffffffffffffffffffffffffffffffff16021790555060016005600083815260200190815260200160002060050160006101000a81548160ff02191690831515021790555060006005600083815260200190815260200160002060405180610100016040529081600082015481526020016001820160009054906101000a900473ffffffffffffffffffffffffffffffffffffffff1673ffffffffffffffffffffffffffffffffffffffff1673ffffffffffffffffffffffffffffffffffffffff1681526020016002820160009054906101000a900473ffffffffffffffffffffffffffffffffffffffff1673ffffffffffffffffffffffffffffffffffffffff1673ffffffffffffffffffffffffffffffffffffffff16815260200160038201548152602001600482015481526020016005820160009054906101000a900460ff161515151581526020016005820160019054906101000a900460ff1615151515815260200160068201548152505090508060c0015115610a9e57610a9981602001518260400151836060015184608001516000801b6128b7565b610ac9565b8060c00151610ac857610ac781602001518260400151836060015184608001516000801b612c4f565b5b5b5050565b600e5481565b600160009054906101000a900473ffffffffffffffffffffffffffffffffffffffff1681565b60008054906101000a900473ffffffffffffffffffffffffffffffffffffffff1673ffffffffffffffffffffffffffffffffffffffff163373ffffffffffffffffffffffffffffffffffffffff1614610b5157600080fd5b80600a60006101000a81548173ffffffffffffffffffffffffffffffffffffffff021916908373ffffffffffffffffffffffffffffffffffffffff16021790555050565b83341015610ba257600080fd5b600060046000815480929190610bb790613b90565b9190505550600060045490506040518061010001604052808281526020013373ffffffffffffffffffffffffffffffffffffffff1681526020018373ffffffffffffffffffffffffffffffffffffffff168152602001878152602001868152602001600015158152602001851515815260200184815250600560008381526020019081526020016000206000820151816000015560208201518160010160006101000a81548173ffffffffffffffffffffffffffffffffffffffff021916908373ffffffffffffffffffffffffffffffffffffffff16021790555060408201518160020160006101000a81548173ffffffffffffffffffffffffffffffffffffffff021916908373ffffffffffffffffffffffffffffffffffffffff160217905550606082015181600301556080820151816004015560a08201518160050160006101000a81548160ff02191690831515021790555060c08201518160050160016101000a81548160ff02191690831515021790555060e08201518160060155905050505050505050565b600360009054906101000a900473ffffffffffffffffffffffffffffffffffffffff1681565b60008054906101000a900473ffffffffffffffffffffffffffffffffffffffff1673ffffffffffffffffffffffffffffffffffffffff163373ffffffffffffffffffffffffffffffffffffffff1614610dc057600080fd5b600380811115610df9577f4e487b7100000000000000000000000000000000000000000000000000000000600052602160045260246000fd5b6006600084815260200190815260200160002060080160009054906101000a900460ff166003811115610e55577f4e487b7100000000000000000000000000000000000000000000000000000000600052602160045260246000fd5b14610e5f57600080fd5b8015610edc57610ed760076000848152602001908152602001600020546006600085815260200190815260200160002060010160009054906101000a900473ffffffffffffffffffffffffffffffffffffffff1673ffffffffffffffffffffffffffffffffffffffff16612fbb90919063ffffffff16565b610f55565b80610f5457610f5360076000848152602001908152602001600020546006600085815260200190815260200160002060020160009054906101000a900473ffffffffffffffffffffffffffffffffffffffff1673ffffffffffffffffffffffffffffffffffffffff16612fbb90919063ffffffff16565b5b5b5050565b60066020528060005260406000206000915090508060000154908060010160009054906101000a900473ffffffffffffffffffffffffffffffffffffffff16908060020160009054906101000a900473ffffffffffffffffffffffffffffffffffffffff16908060020160149054906101000a900460ff16908060030154908060040154908060050160009054906101000a900460ff16908060050160019054906101000a900460ff16908060060154908060070154908060080160009054906101000a900460ff1690806009015490508c565b600a60149054906101000a900460ff1681565b60006006600083815260200190815260200160002060405180610180016040529081600082015481526020016001820160009054906101000a900473ffffffffffffffffffffffffffffffffffffffff1673ffffffffffffffffffffffffffffffffffffffff1673ffffffffffffffffffffffffffffffffffffffff1681526020016002820160009054906101000a900473ffffffffffffffffffffffffffffffffffffffff1673ffffffffffffffffffffffffffffffffffffffff1673ffffffffffffffffffffffffffffffffffffffff1681526020016002820160149054906101000a900460ff1615151515815260200160038201548152602001600482015481526020016005820160009054906101000a900460ff161515151581526020016005820160019054906101000a900460ff1615151515815260200160068201548152602001600782015481526020016008820160009054906101000a900460ff1660038111156111db577f4e487b7100000000000000000000000000000000000000000000000000000000600052602160045260246000fd5b6003811115611213577f4e487b7100000000000000000000000000000000000000000000000000000000600052602160045260246000fd5b81526020016009820154815250509050806020015173ffffffffffffffffffffffffffffffffffffffff163373ffffffffffffffffffffffffffffffffffffffff161461125f57600080fd5b6112826006600084815260200190815260200160002060070154620151806130af565b4261128d91906139af565b4211156112cf576040517f08c379a00000000000000000000000000000000000000000000000000000000081526004016112c6906136b8565b60405180910390fd5b6006600083815260200190815260200160002060050160009054906101000a900460ff16611332576040517f08c379a000000000000000000000000000000000000000000000000000000000815260040161132990613658565b60405180910390fd5b6006600083815260200190815260200160002060050160019054906101000a900460ff1615611396576040517f08c379a000000000000000000000000000000000000000000000000000000000815260040161138d90613778565b60405180910390fd5b600b600083815260200190815260200160002060009054906101000a900460ff16156113c157600080fd5b600660008381526020019081526020016000206000808201600090556001820160006101000a81549073ffffffffffffffffffffffffffffffffffffffff02191690556002820160006101000a81549073ffffffffffffffffffffffffffffffffffffffff02191690556002820160146101000a81549060ff0219169055600382016000905560048201600090556005820160006101000a81549060ff02191690556005820160016101000a81549060ff0219169055600682016000905560078201600090556008820160006101000a81549060ff0219169055600982016000905550508060600151156116835760006007600084815260200190815260200160002054905060006114f06114e8600a60149054906101000a900460ff1660ff16846130af565b6103e86130c5565b9050600061151b611513600a60159054906101000a900460ff1660ff16856130af565b6103e86130c5565b9050600061154661153e600a60169054906101000a900460ff1660ff16866130af565b6103e86130c5565b90506000611571611569600a60179054906101000a900460ff1660ff16876130af565b6103e86130c5565b9050600060076000898152602001908152602001600020819055506115e5818385878961159e9190613a90565b6115a89190613a90565b6115b29190613a90565b6115bc9190613a90565b876040015173ffffffffffffffffffffffffffffffffffffffff16612fbb90919063ffffffff16565b61163082600260009054906101000a900473ffffffffffffffffffffffffffffffffffffffff1673ffffffffffffffffffffffffffffffffffffffff16612fbb90919063ffffffff16565b6116798460008054906101000a900473ffffffffffffffffffffffffffffffffffffffff1673ffffffffffffffffffffffffffffffffffffffff16612fbb90919063ffffffff16565b50505050506119f2565b80606001516119f15760006008600084815260200190815260200160002054905060006116cd6116c5600a60149054906101000a900460ff1660ff16846130af565b6103e86130c5565b905060006116f86116f0600a60159054906101000a900460ff1660ff16856130af565b6103e86130c5565b9050600061172361171b600a60169054906101000a900460ff1660ff16866130af565b6103e86130c5565b9050600061174e611746600a60179054906101000a900460ff1660ff16876130af565b6103e86130c5565b905060006008600089815260200190815260200160002081905550600a60009054906101000a900473ffffffffffffffffffffffffffffffffffffffff1673ffffffffffffffffffffffffffffffffffffffff1663a9059cbb8760400151838587898b6117bb9190613a90565b6117c59190613a90565b6117cf9190613a90565b6117d99190613a90565b6040518363ffffffff1660e01b81526004016117f69291906135f4565b602060405180830381600087803b15801561181057600080fd5b505af1158015611824573d6000803e3d6000fd5b505050506040513d601f19601f8201168201806040525081019061184891906131c1565b50600a60009054906101000a900473ffffffffffffffffffffffffffffffffffffffff1673ffffffffffffffffffffffffffffffffffffffff1663a9059cbb600260009054906101000a900473ffffffffffffffffffffffffffffffffffffffff16846040518363ffffffff1660e01b81526004016118c89291906135f4565b602060405180830381600087803b1580156118e257600080fd5b505af11580156118f6573d6000803e3d6000fd5b505050506040513d601f19601f8201168201806040525081019061191a91906131c1565b50600a60009054906101000a900473ffffffffffffffffffffffffffffffffffffffff1673ffffffffffffffffffffffffffffffffffffffff1663a9059cbb60008054906101000a900473ffffffffffffffffffffffffffffffffffffffff16866040518363ffffffff1660e01b81526004016119989291906135f4565b602060405180830381600087803b1580156119b257600080fd5b505af11580156119c6573d6000803e3d6000fd5b505050506040513d601f19601f820116820180604052508101906119ea91906131c1565b5050505050505b5b60016006600084815260200190815260200160002060050160016101000a81548160ff02191690831515021790555060026006600084815260200190815260200160002060080160006101000a81548160ff02191690836003811115611a81577f4e487b7100000000000000000000000000000000000000000000000000000000600052602160045260246000fd5b02179055505050565b60008054906101000a900473ffffffffffffffffffffffffffffffffffffffff1681565b6006600082815260200190815260200160002060020160009054906101000a900473ffffffffffffffffffffffffffffffffffffffff1673ffffffffffffffffffffffffffffffffffffffff163373ffffffffffffffffffffffffffffffffffffffff161480611b7f57506006600082815260200190815260200160002060010160009054906101000a900473ffffffffffffffffffffffffffffffffffffffff1673ffffffffffffffffffffffffffffffffffffffff163373ffffffffffffffffffffffffffffffffffffffff16145b611b8857600080fd5b6006600082815260200190815260200160002060050160019054906101000a900460ff161580611bd957506006600082815260200190815260200160002060050160009054906101000a900460ff16155b611be257600080fd5b600b600082815260200190815260200160002060009054906101000a900460ff1615611c0d57600080fd5b600380811115611c46577f4e487b7100000000000000000000000000000000000000000000000000000000600052602160045260246000fd5b6006600083815260200190815260200160002060080160009054906101000a900460ff166003811115611ca2577f4e487b7100000000000000000000000000000000000000000000000000000000600052602160045260246000fd5b1415611cad57600080fd5b60036006600083815260200190815260200160002060080160006101000a81548160ff02191690836003811115611d0d577f4e487b7100000000000000000000000000000000000000000000000000000000600052602160045260246000fd5b021790555060108190806001815401808255809150506001900390600052602060002001600090919091909150553373ffffffffffffffffffffffffffffffffffffffff16600c600083815260200190815260200160002060009054906101000a905050506006600082815260200190815260200160002060080160009054906101000a900460ff166003811115611dce577f4e487b7100000000000000000000000000000000000000000000000000000000600052602160045260246000fd5b817ffafe884515ca1fa5e0bf815ce87ef00b2cdaa0eee590d20376604937937a10bf60405160405180910390a350565b60108181548110611e0e57600080fd5b906000526020600020016000915090505481565b60056020528060005260406000206000915090508060000154908060010160009054906101000a900473ffffffffffffffffffffffffffffffffffffffff16908060020160009054906101000a900473ffffffffffffffffffffffffffffffffffffffff16908060030154908060040154908060050160009054906101000a900460ff16908060050160019054906101000a900460ff16908060060154905088565b600a60179054906101000a900460ff1681565b60006006600084815260200190815260200160002060405180610180016040529081600082015481526020016001820160009054906101000a900473ffffffffffffffffffffffffffffffffffffffff1673ffffffffffffffffffffffffffffffffffffffff1673ffffffffffffffffffffffffffffffffffffffff1681526020016002820160009054906101000a900473ffffffffffffffffffffffffffffffffffffffff1673ffffffffffffffffffffffffffffffffffffffff1673ffffffffffffffffffffffffffffffffffffffff1681526020016002820160149054906101000a900460ff1615151515815260200160038201548152602001600482015481526020016005820160009054906101000a900460ff161515151581526020016005820160019054906101000a900460ff1615151515815260200160068201548152602001600782015481526020016008820160009054906101000a900460ff166003811115612072577f4e487b7100000000000000000000000000000000000000000000000000000000600052602160045260246000fd5b60038111156120aa577f4e487b7100000000000000000000000000000000000000000000000000000000600052602160045260246000fd5b81526020016009820154815250509050806020015173ffffffffffffffffffffffffffffffffffffffff163373ffffffffffffffffffffffffffffffffffffffff161461212c576040517f08c379a000000000000000000000000000000000000000000000000000000000815260040161212390613718565b60405180910390fd5b80608001518210612172576040517f08c379a000000000000000000000000000000000000000000000000000000000815260040161216990613678565b60405180910390fd5b8060600151156121fd57612199600760008581526020019081526020016000205483613104565b60076000858152602001908152602001600020819055508160066000858152602001908152602001600020600401819055506121f882826040015173ffffffffffffffffffffffffffffffffffffffff16612fbb90919063ffffffff16565b61230d565b806060015161230c578160086000858152602001908152602001600020546122259190613a90565b6008600085815260200190815260200160002081905550816006600085815260200190815260200160002060040181905550600a60009054906101000a900473ffffffffffffffffffffffffffffffffffffffff1673ffffffffffffffffffffffffffffffffffffffff1663a9059cbb8260400151846040518363ffffffff1660e01b81526004016122b89291906135f4565b602060405180830381600087803b1580156122d257600080fd5b505af11580156122e6573d6000803e3d6000fd5b505050506040513d601f19601f8201168201806040525081019061230a91906131c1565b505b5b505050565b806006600082815260200190815260200160002060020160009054906101000a900473ffffffffffffffffffffffffffffffffffffffff1673ffffffffffffffffffffffffffffffffffffffff163373ffffffffffffffffffffffffffffffffffffffff161461238157600080fd5b6123a4600660008481526020019081526020016000206007015462014ff06130af565b426123af91906139af565b4211156123f1576040517f08c379a00000000000000000000000000000000000000000000000000000000081526004016123e8906136b8565b60405180910390fd5b6000600381111561242b577f4e487b7100000000000000000000000000000000000000000000000000000000600052602160045260246000fd5b6006600084815260200190815260200160002060080160009054906101000a900460ff166003811115612487577f4e487b7100000000000000000000000000000000000000000000000000000000600052602160045260246000fd5b1461249157600080fd5b600b600083815260200190815260200160002060009054906101000a900460ff16156124bc57600080fd5b6006600083815260200190815260200160002060050160019054906101000a900460ff1615612520576040517f08c379a000000000000000000000000000000000000000000000000000000000815260040161251790613638565b60405180910390fd5b60016006600084815260200190815260200160002060050160006101000a81548160ff02191690831515021790555060016006600084815260200190815260200160002060080160006101000a81548160ff021916908360038111156125af577f4e487b7100000000000000000000000000000000000000000000000000000000600052602160045260246000fd5b02179055506006600083815260200190815260200160002060080160009054906101000a900460ff166003811115612610577f4e487b7100000000000000000000000000000000000000000000000000000000600052602160045260246000fd5b827ffafe884515ca1fa5e0bf815ce87ef00b2cdaa0eee590d20376604937937a10bf60405160405180910390a35050565b60045481565b60008054906101000a900473ffffffffffffffffffffffffffffffffffffffff1673ffffffffffffffffffffffffffffffffffffffff163373ffffffffffffffffffffffffffffffffffffffff161461269f57600080fd5b83600a60146101000a81548160ff021916908360ff16021790555081600a60156101000a81548160ff021916908360ff16021790555082600a60166101000a81548160ff021916908360ff16021790555080600a60176101000a81548160ff021916908360ff16021790555050505050565b6006600083815260200190815260200160002060010160009054906101000a900473ffffffffffffffffffffffffffffffffffffffff1673ffffffffffffffffffffffffffffffffffffffff163373ffffffffffffffffffffffffffffffffffffffff1614806127e257506006600083815260200190815260200160002060020160009054906101000a900473ffffffffffffffffffffffffffffffffffffffff1673ffffffffffffffffffffffffffffffffffffffff163373ffffffffffffffffffffffffffffffffffffffff16145b612821576040517f08c379a000000000000000000000000000000000000000000000000000000000815260040161281890613758565b60405180910390fd5b8060066000848152602001908152602001600020600901819055505050565b600a60159054906101000a900460ff1681565b600260009054906101000a900473ffffffffffffffffffffffffffffffffffffffff1681565b600a60009054906101000a900473ffffffffffffffffffffffffffffffffffffffff1681565b60076020528060005260406000206000915090505481565b600f548211156128fc576040517f08c379a00000000000000000000000000000000000000000000000000000000081526004016128f390613698565b60405180910390fd5b600e600081548092919061290f90613b90565b91905055506000600e5490506040518061018001604052808281526020018773ffffffffffffffffffffffffffffffffffffffff1681526020018673ffffffffffffffffffffffffffffffffffffffff16815260200160011515815260200185815260200160008152602001600015158152602001600015158152602001428152602001848152602001600060038111156129d3577f4e487b7100000000000000000000000000000000000000000000000000000000600052602160045260246000fd5b815260200183815250600660008381526020019081526020016000206000820151816000015560208201518160010160006101000a81548173ffffffffffffffffffffffffffffffffffffffff021916908373ffffffffffffffffffffffffffffffffffffffff16021790555060408201518160020160006101000a81548173ffffffffffffffffffffffffffffffffffffffff021916908373ffffffffffffffffffffffffffffffffffffffff16021790555060608201518160020160146101000a81548160ff0219169083151502179055506080820151816003015560a0820151816004015560c08201518160050160006101000a81548160ff02191690831515021790555060e08201518160050160016101000a81548160ff021916908315150217905550610100820151816006015561012082015181600701556101408201518160080160006101000a81548160ff02191690836003811115612b63577f4e487b7100000000000000000000000000000000000000000000000000000000600052602160045260246000fd5b0217905550610160820151816009015590505083600760008381526020019081526020016000208190555080600d60008873ffffffffffffffffffffffffffffffffffffffff1673ffffffffffffffffffffffffffffffffffffffff168152602001908152602001600020819055506000600b600083815260200190815260200160002060006101000a81548160ff0219169083151502179055507fbae03ad01a8f57efd28dc6ae7f0b27788a70b6def4208bd55fd3fbd3e205ec84818787600188428960008a604051612c3f9998979695949392919061386d565b60405180910390a1505050505050565b600f54821115612c94576040517f08c379a0000000000000000000000000000000000000000000000000000000008152600401612c8b90613698565b60405180910390fd5b600e6000815480929190612ca790613b90565b91905055506000600e5490506040518061018001604052808281526020018773ffffffffffffffffffffffffffffffffffffffff1681526020018673ffffffffffffffffffffffffffffffffffffffff1681526020016000151581526020018581526020016000815260200160001515815260200160001515815260200142815260200184815260200160006003811115612d6b577f4e487b7100000000000000000000000000000000000000000000000000000000600052602160045260246000fd5b815260200183815250600660008381526020019081526020016000206000820151816000015560208201518160010160006101000a81548173ffffffffffffffffffffffffffffffffffffffff021916908373ffffffffffffffffffffffffffffffffffffffff16021790555060408201518160020160006101000a81548173ffffffffffffffffffffffffffffffffffffffff021916908373ffffffffffffffffffffffffffffffffffffffff16021790555060608201518160020160146101000a81548160ff0219169083151502179055506080820151816003015560a0820151816004015560c08201518160050160006101000a81548160ff02191690831515021790555060e08201518160050160016101000a81548160ff021916908315150217905550610100820151816006015561012082015181600701556101408201518160080160006101000a81548160ff02191690836003811115612efb577f4e487b7100000000000000000000000000000000000000000000000000000000600052602160045260246000fd5b0217905550610160820151816009015590505083600860008381526020019081526020016000208190555080600d60008873ffffffffffffffffffffffffffffffffffffffff1673ffffffffffffffffffffffffffffffffffffffff168152602001908152602001600020819055507fbae03ad01a8f57efd28dc6ae7f0b27788a70b6def4208bd55fd3fbd3e205ec84818787600088428960008a604051612fab9998979695949392919061386d565b60405180910390a1505050505050565b80471015612ffe576040517f08c379a0000000000000000000000000000000000000000000000000000000008152600401612ff5906136f8565b60405180910390fd5b60008273ffffffffffffffffffffffffffffffffffffffff1682604051613024906135a9565b60006040518083038185875af1925050503d8060008114613061576040519150601f19603f3d011682016040523d82523d6000602084013e613066565b606091505b50509050806130aa576040517f08c379a00000000000000000000000000000000000000000000000000000000081526004016130a1906136d8565b60405180910390fd5b505050565b600081836130bd9190613a36565b905092915050565b60008082846130d49190613bd9565b146130e05760016130e3565b60005b60ff1682846130f29190613a05565b6130fc91906139af565b905092915050565b600081836131129190613a90565b905092915050565b60008135905061312981613ebd565b92915050565b60008135905061313e81613ed4565b92915050565b60008151905061315381613ed4565b92915050565b60008135905061316881613eeb565b92915050565b60008135905061317d81613f02565b92915050565b60008135905061319281613f19565b92915050565b6000602082840312156131aa57600080fd5b60006131b88482850161311a565b91505092915050565b6000602082840312156131d357600080fd5b60006131e184828501613144565b91505092915050565b6000602082840312156131fc57600080fd5b600061320a8482850161316e565b91505092915050565b6000806040838503121561322657600080fd5b60006132348582860161316e565b92505060206132458582860161312f565b9150509250929050565b6000806040838503121561326257600080fd5b60006132708582860161316e565b925050602061328185828601613159565b9150509250929050565b6000806040838503121561329e57600080fd5b60006132ac8582860161316e565b92505060206132bd8582860161316e565b9150509250929050565b600080600080608085870312156132dd57600080fd5b60006132eb8782880161316e565b94505060206132fc8782880161316e565b935050604061330d8782880161312f565b925050606061331e87828801613159565b91505092959194509250565b6000806000806080858703121561334057600080fd5b600061334e87828801613183565b945050602061335f87828801613183565b935050604061337087828801613183565b925050606061338187828801613183565b91505092959194509250565b61339681613b48565b82525050565b6133a581613ad6565b82525050565b6133b481613ac4565b82525050565b6133c381613ae8565b82525050565b6133d281613af4565b82525050565b6133e181613b5a565b82525050565b60006133f460178361399e565b91506133ff82613c97565b602082019050919050565b600061341760218361399e565b915061342282613cc0565b604082019050919050565b600061343a601c8361399e565b915061344582613d0f565b602082019050919050565b600061345d601a8361399e565b915061346882613d38565b602082019050919050565b600061348060168361399e565b915061348b82613d61565b602082019050919050565b60006134a3603a8361399e565b91506134ae82613d8a565b604082019050919050565b60006134c6601d8361399e565b91506134d182613dd9565b602082019050919050565b60006134e960098361399e565b91506134f482613e02565b602082019050919050565b600061350c60108361399e565b915061351782613e2b565b602082019050919050565b600061352f600083613993565b915061353a82613e54565b600082019050919050565b600061355260178361399e565b915061355d82613e57565b602082019050919050565b600061357560178361399e565b915061358082613e80565b602082019050919050565b61359481613b31565b82525050565b6135a381613b3b565b82525050565b60006135b482613522565b9150819050919050565b60006020820190506135d360008301846133ab565b92915050565b60006020820190506135ee600083018461339c565b92915050565b6000604082019050613609600083018561338d565b613616602083018461358b565b9392505050565b600060208201905061363260008301846133ba565b92915050565b60006020820190508181036000830152613651816133e7565b9050919050565b600060208201905081810360008301526136718161340a565b9050919050565b600060208201905081810360008301526136918161342d565b9050919050565b600060208201905081810360008301526136b181613450565b9050919050565b600060208201905081810360008301526136d181613473565b9050919050565b600060208201905081810360008301526136f181613496565b9050919050565b60006020820190508181036000830152613711816134b9565b9050919050565b60006020820190508181036000830152613731816134dc565b9050919050565b60006020820190508181036000830152613751816134ff565b9050919050565b6000602082019050818103600083015261377181613545565b9050919050565b6000602082019050818103600083015261379181613568565b9050919050565b60006020820190506137ad600083018461358b565b92915050565b6000610180820190506137c9600083018f61358b565b6137d6602083018e6133ab565b6137e3604083018d61339c565b6137f0606083018c6133ba565b6137fd608083018b61358b565b61380a60a083018a61358b565b61381760c08301896133ba565b61382460e08301886133ba565b61383261010083018761358b565b61384061012083018661358b565b61384e6101408301856133d8565b61385c6101608301846133c9565b9d9c50505050505050505050505050565b600061012082019050613883600083018c61358b565b613890602083018b6133ab565b61389d604083018a61339c565b6138aa60608301896133ba565b6138b7608083018861358b565b6138c460a083018761358b565b6138d160c083018661358b565b6138de60e08301856133d8565b6138ec6101008301846133c9565b9a9950505050505050505050565b600061010082019050613910600083018b61358b565b61391d602083018a6133ab565b61392a604083018961339c565b613937606083018861358b565b613944608083018761358b565b61395160a08301866133ba565b61395e60c08301856133ba565b61396b60e08301846133c9565b9998505050505050505050565b600060208201905061398d600083018461359a565b92915050565b600081905092915050565b600082825260208201905092915050565b60006139ba82613b31565b91506139c583613b31565b9250827fffffffffffffffffffffffffffffffffffffffffffffffffffffffffffffffff038211156139fa576139f9613c0a565b5b828201905092915050565b6000613a1082613b31565b9150613a1b83613b31565b925082613a2b57613a2a613c39565b5b828204905092915050565b6000613a4182613b31565b9150613a4c83613b31565b9250817fffffffffffffffffffffffffffffffffffffffffffffffffffffffffffffffff0483118215151615613a8557613a84613c0a565b5b828202905092915050565b6000613a9b82613b31565b9150613aa683613b31565b925082821015613ab957613ab8613c0a565b5b828203905092915050565b6000613acf82613b11565b9050919050565b6000613ae182613b11565b9050919050565b60008115159050919050565b6000819050919050565b6000819050613b0c82613ea9565b919050565b600073ffffffffffffffffffffffffffffffffffffffff82169050919050565b6000819050919050565b600060ff82169050919050565b6000613b5382613b6c565b9050919050565b6000613b6582613afe565b9050919050565b6000613b7782613b7e565b9050919050565b6000613b8982613b11565b9050919050565b6000613b9b82613b31565b91507fffffffffffffffffffffffffffffffffffffffffffffffffffffffffffffffff821415613bce57613bcd613c0a565b5b600182019050919050565b6000613be482613b31565b9150613bef83613b31565b925082613bff57613bfe613c39565b5b828206905092915050565b7f4e487b7100000000000000000000000000000000000000000000000000000000600052601160045260246000fd5b7f4e487b7100000000000000000000000000000000000000000000000000000000600052601260045260246000fd5b7f4e487b7100000000000000000000000000000000000000000000000000000000600052602160045260246000fd5b7f627579657220616c726561647920636f6e6669726d6564000000000000000000600082015250565b7f53656c6c657220686173206e6f7420436f6e6669726d65642064656c6976657260008201527f7900000000000000000000000000000000000000000000000000000000000000602082015250565b7f616d6f756e742067726561746572207468616e20746f74616c416d7400000000600082015250565b7f74696d65506572696f64206d6f7265207468616e206c696d6974000000000000600082015250565b7f457363726f7720506572696f6420657863656564656400000000000000000000600082015250565b7f416464726573733a20756e61626c6520746f2073656e642076616c75652c207260008201527f6563697069656e74206d61792068617665207265766572746564000000000000602082015250565b7f416464726573733a20696e73756666696369656e742062616c616e6365000000600082015250565b7f6e6f742062757965720000000000000000000000000000000000000000000000600082015250565b7f616c726561647920616363657074656400000000000000000000000000000000600082015250565b50565b7f6e656974686572206275796572206f722073656c6c6572000000000000000000600082015250565b7f427579657220616c726561647920636f6e6669726d6564000000000000000000600082015250565b60048110613eba57613eb9613c68565b5b50565b613ec681613ac4565b8114613ed157600080fd5b50565b613edd81613ae8565b8114613ee857600080fd5b50565b613ef481613af4565b8114613eff57600080fd5b50565b613f0b81613b31565b8114613f1657600080fd5b50565b613f2281613b3b565b8114613f2d57600080fd5b5056fea2646970667358221220e21bb804a3560063162d8ca58b8a5169724e2c5ce7ff9591f3b6a6592c5ee95e64736f6c63430008010033",
  "immutableReferences": {},
  "source": "// SPDX-License-Identifier: MIT\n\nimport {IERC20} from \"@openzeppelin/contracts/token/ERC20/IERC20.sol\";\nimport \"@openzeppelin/contracts/utils/math/SafeMath.sol\";\nimport \"@openzeppelin/contracts/utils/Address.sol\";\nimport {IPancakeRouter02} from './pancakeRouter.sol';\n\npragma solidity ^0.8.0;\n\ncontract customEscrow2 {\n\n    using SafeMath for uint256;\n    using Address for address payable;\n\n    enum State{initiated,delivered,paid,disputed}\n    \n    struct proposal{\n        uint256 id;\n        address buyer;\n        address payable seller;\n        uint256 amt;\n        uint256 time;\n        bool accepted;\n        bool payType;\n        bytes32 email;\n    }\n\n    struct instance{\n        uint256 id;\n        address buyer;\n        address payable seller;\n        bool payType; // true if BNB/false if tokens\n        uint256 totalAmt;\n        uint256 amtPaid;\n        bool sellerConfirmation;\n        bool buyerConfirmation;\n        uint256 start;\n        uint256 timeInDays;\n        State currentState;\n        bytes32 message;\n    }\n\n    address payable public owner;\n    \n    address payable public liquidityPool;\n\n    address payable public admin;\n\n    address payable public burnAddress;\n    \n    uint256 public proposalCount;\n    \n    mapping(uint256=>proposal) public getProposal;\n\n    mapping(uint256 => instance) public getEscrow;\n\n    mapping(uint256=>uint256) public escrowAmtsBNB;\n\n    mapping(uint256=>uint256) public escrowAmtsToken;\n\n    mapping(address => uint256) balances;\n\n    address public token;\n\n    uint8 public ownerCut;\n\n    uint8 public PoolCut;\n\n    uint8 public adminCut;\n\n    uint8 public burnCut;\n\n    mapping (uint256=>bool) public approvedForWithdraw;\n\n    mapping(uint256=> address) public disputedRaisedBy;\n\n    mapping(address=>uint256) public AddressEscrowMap;\n\n    uint256 public totalEscrows;\n\n    uint256 public timeLimitInDays;\n\n    uint256[] public disputedEscrows;\n\n    event EscrowCreated(\n        uint256 id,\n        address buyer,\n        address payable seller,\n        bool payType,\n        uint256 paid,\n        uint256 start,\n        uint256 timeInDays,\n        State currentState,\n        bytes32 message\n    );\n\n    event StateChanged(uint256 indexed id,State indexed _state);\n\n    modifier onlyOwner() {\n        require(msg.sender == owner);\n        _;\n    }\n\n    modifier onlyAdmin() {\n        require(msg.sender == admin);\n        _;\n    }\n\n    modifier onlyBuyer(uint _id){\n        require(msg.sender == getEscrow[_id].buyer);\n        _;\n    }\n\n    modifier onlySeller(uint _id){\n        require(msg.sender == getEscrow[_id].seller);\n        _;\n    }\n\n    constructor(address payable _owner,address _token,uint256 _timeLimitInDays,address payable _admin,address payable _liquidityPool,address payable _burnAddress){\n        owner = _owner;\n        token = _token;\n        burnAddress = _burnAddress;\n        admin = _admin;\n        liquidityPool = _liquidityPool;\n        totalEscrows =0;\n        timeLimitInDays = _timeLimitInDays;\n    }\n\n    function setFeesAdminPoolCut(uint8 fees,uint8 _admin,uint8 _poolCut,uint8 _burnCut) public onlyOwner {\n        ownerCut = fees;\n        PoolCut = _poolCut;\n        adminCut = _admin;\n        burnCut = _burnCut;\n    }\n\n    function arraySum(uint256[] memory array) internal pure returns (uint256) {\n        require(array.length >1);\n        uint256 sum = 0;\n        for (uint256 i = 0; i < array.length-1; i++) {\n            sum = SafeMath.add(sum,array[i]);\n        }\n        return sum;\n    }\n    \n    function createProposal(uint256 amt,uint256 time,bool payType,bytes32 email) public payable{\n        require(msg.value >=amt);\n        address payable _buyer = payable(address(0));\n        proposalCount++;\n        uint256 _id = proposalCount;\n        getProposal[_id]=proposal(_id,msg.sender,_buyer,amt,time,false,payType,email);\n    }\n    \n    function acceptProposal(uint256 _id) public {\n        require(!getProposal[_id].accepted,\"already accepted\");\n        getProposal[_id].seller = payable(msg.sender);\n        getProposal[_id].accepted = true;\n        proposal memory temp = getProposal[_id];\n        if(temp.payType){\n            createEscrowBNB(temp.buyer,temp.seller,temp.amt,temp.time,bytes32(0));   \n        }else if(!temp.payType){\n            createEscrowToken(temp.buyer,temp.seller,temp.amt,temp.time,bytes32(0));\n        }\n        \n    }\n    \n    function addMessage(uint256 id,bytes32 _message) public {\n        require(msg.sender == getEscrow[id].buyer || msg.sender == getEscrow[id].seller,\"neither buyer or seller\");\n        getEscrow[id].message = _message;\n    }\n\n    function createEscrowBNB(address _buyer,address payable _seller,uint256 amt,uint256 timeInDays,bytes32 message) internal {\n        require(timeInDays <= timeLimitInDays,\"timePeriod more than limit\");\n        totalEscrows++;\n        uint256 id = totalEscrows;\n        getEscrow[id]= instance(id,_buyer,_seller,true,amt,0,false,false,block.timestamp,timeInDays,State.initiated,message);\n        escrowAmtsBNB[id] = amt;\n        AddressEscrowMap[_buyer] = id;\n        approvedForWithdraw[id] = false;\n        emit EscrowCreated(id,_buyer,_seller,true,amt,block.timestamp,timeInDays,State.initiated,message);\n    }\n\n    function createEscrowToken(address __buyer,address payable _seller,uint256 amt,uint256 timeInDays,bytes32 message) internal {\n        require(timeInDays <= timeLimitInDays,\"timePeriod more than limit\");\n        totalEscrows++;\n        uint256 id = totalEscrows;\n        getEscrow[id]= instance(id,__buyer,_seller,false,amt,0,false,false,block.timestamp,timeInDays,State.initiated,message);\n        escrowAmtsToken[id] = amt;\n        AddressEscrowMap[__buyer] = id;\n        emit EscrowCreated(id,__buyer,_seller,false,amt,block.timestamp,timeInDays,State.initiated,message);\n    }\n\n    function updateSellerStatus(uint256 _id) public onlySeller(_id){\n        require(block.timestamp <= block.timestamp+SafeMath.mul(getEscrow[_id].timeInDays,86000),\"Escrow Period exceeded\");\n        require(getEscrow[_id].currentState == State.initiated);\n        require(!approvedForWithdraw[_id]);\n        require(!getEscrow[_id].buyerConfirmation,\"buyer already confirmed\");\n        getEscrow[_id].sellerConfirmation = true;\n        getEscrow[_id].currentState = State.delivered;\n        emit StateChanged(_id,getEscrow[_id].currentState);\n    }\n\n    //TODO add fees and percents\n\n    function releasePayment(uint256 _id) public { \n        instance memory temp = getEscrow[_id];\n        require(msg.sender == temp.buyer);\n        require(block.timestamp <= block.timestamp+SafeMath.mul(getEscrow[_id].timeInDays,86400),\"Escrow Period exceeded\");\n        require(getEscrow[_id].sellerConfirmation,\"Seller has not Confirmed delivery\");\n        require(!getEscrow[_id].buyerConfirmation,\"Buyer already confirmed\");\n        require(!approvedForWithdraw[_id]);\n        delete getEscrow[_id];\n        if(temp.payType){\n            uint256 Temp= escrowAmtsBNB[_id];\n            uint256 OwnerCut = ceilDiv(SafeMath.mul(ownerCut,Temp),1000);\n            uint256 _PoolCut = ceilDiv(SafeMath.mul(PoolCut,Temp),1000);\n            uint256 _adminCut = ceilDiv(SafeMath.mul(adminCut,Temp),1000);\n            uint256 _burnCut = ceilDiv(SafeMath.mul(burnCut,Temp),1000);\n            escrowAmtsBNB[_id] = 0;\n            temp.seller.sendValue(Temp-OwnerCut-_PoolCut-_adminCut-_burnCut);\n            admin.sendValue(_adminCut);\n            owner.sendValue(OwnerCut);\n        }else if(!temp.payType){\n            uint256 _temp = escrowAmtsToken[_id];\n            uint256 OwnerCut = ceilDiv(SafeMath.mul(ownerCut,_temp),1000);\n            uint256 _PoolCut = ceilDiv(SafeMath.mul(PoolCut,_temp),1000);\n            uint256 _adminCut = ceilDiv(SafeMath.mul(adminCut,_temp),1000);\n            uint256 _burnCut = ceilDiv(SafeMath.mul(burnCut,_temp),1000);\n            escrowAmtsToken[_id] = 0;   \n            IERC20(token).transfer(temp.seller,_temp-OwnerCut-_PoolCut-_adminCut-_burnCut);\n            IERC20(token).transfer(admin,_adminCut);\n            IERC20(token).transfer(owner,OwnerCut);\n        }\n        getEscrow[_id].buyerConfirmation=true;\n        getEscrow[_id].currentState = State.paid;\n    }\n\n    function releaseMileStone(uint256 _id,uint256 amt) public {\n        instance memory temp = getEscrow[_id];\n        require(msg.sender == temp.buyer,\"not buyer\");\n        require(amt < temp.totalAmt,\"amount greater than totalAmt\");\n        if(temp.payType){\n            escrowAmtsBNB[_id] = SafeMath.sub(escrowAmtsBNB[_id],amt);\n            getEscrow[_id].amtPaid = amt;\n            temp.seller.sendValue(amt);\n        }else if(!temp.payType){\n            escrowAmtsToken[_id] = escrowAmtsToken[_id] - amt;\n            getEscrow[_id].amtPaid = amt;\n            IERC20(token).transfer(temp.seller,amt);\n        }\n    }\n\n    function raiseDispute(uint256 id) public{\n        require(msg.sender == getEscrow[id].seller || msg.sender == getEscrow[id].buyer);\n        require(!getEscrow[id].buyerConfirmation || !getEscrow[id].sellerConfirmation);\n        require(!approvedForWithdraw[id]);\n        require(getEscrow[id].currentState != State.disputed);\n        getEscrow[id].currentState = State.disputed;\n        disputedEscrows.push(id);\n        disputedRaisedBy[id] == msg.sender;\n        emit StateChanged(id, getEscrow[id].currentState);\n    }\n\n    function approveForWithdraw(uint256 id,bool withdrawParty) public onlyOwner{\n        // withdrawParty -- true if buyer,false if seller \n        require(getEscrow[id].currentState == State.disputed);\n        if(withdrawParty){\n            payable(getEscrow[id].buyer).sendValue(escrowAmtsBNB[id]);\n        }\n        else if(!withdrawParty){\n            getEscrow[id].seller.sendValue(escrowAmtsBNB[id]);\n        }\n    }\n\n     function changeToken(address _token) public onlyOwner{\n        token = _token;\n    }\n\n    function ceilDiv(uint256 a, uint256 b) internal pure returns (uint256) {\n        // (a + b - 1) / b can overflow on addition, so we distribute.\n        return a / b + (a % b == 0 ? 0 : 1);\n    }\n\n    receive() external payable {\n        balances[msg.sender] += msg.value;\n    }\n}",
  "sourcePath": "/Users/ithihasreddy/Desktop/Escrow/contracts/Escrow2.sol",
  "compiler": {
    "name": "solc",
    "version": "0.8.1+commit.df193b15.Emscripten.clang"
  },
  "schemaVersion": "3.4.0",
  "updatedAt": "2021-08-26T13:55:59.663Z",
  "devdoc": {
    "kind": "dev",
    "methods": {},
    "version": 1
  },
  "userdoc": {
    "kind": "user",
    "methods": {},
    "version": 1
  }
}