{
  "contractName": "CustomisedEscrow",
  "abi": [
    {
      "inputs": [
        {
          "internalType": "address",
          "name": "_token",
          "type": "address"
        },
        {
          "internalType": "uint256",
          "name": "_timeLimitInDays",
          "type": "uint256"
        }
      ],
      "stateMutability": "nonpayable",
      "type": "constructor"
    },
    {
      "anonymous": false,
      "inputs": [
        {
          "indexed": false,
          "internalType": "uint256",
          "name": "id",
          "type": "uint256"
        },
        {
          "indexed": false,
          "internalType": "address",
          "name": "buyer",
          "type": "address"
        },
        {
          "indexed": false,
          "internalType": "address payable",
          "name": "seller",
          "type": "address"
        },
        {
          "indexed": false,
          "internalType": "bool",
          "name": "payType",
          "type": "bool"
        },
        {
          "indexed": false,
          "internalType": "uint256",
          "name": "amount",
          "type": "uint256"
        },
        {
          "indexed": false,
          "internalType": "uint256",
          "name": "start",
          "type": "uint256"
        },
        {
          "indexed": false,
          "internalType": "uint256",
          "name": "timeInDays",
          "type": "uint256"
        },
        {
          "indexed": false,
          "internalType": "enum CustomisedEscrow.State",
          "name": "currentState",
          "type": "uint8"
        }
      ],
      "name": "EscrowCreated",
      "type": "event"
    },
    {
      "anonymous": false,
      "inputs": [
        {
          "indexed": true,
          "internalType": "uint256",
          "name": "id",
          "type": "uint256"
        },
        {
          "indexed": true,
          "internalType": "enum CustomisedEscrow.State",
          "name": "_state",
          "type": "uint8"
        }
      ],
      "name": "StateChanged",
      "type": "event"
    },
    {
      "inputs": [
        {
          "internalType": "address",
          "name": "",
          "type": "address"
        }
      ],
      "name": "admins",
      "outputs": [
        {
          "internalType": "bool",
          "name": "",
          "type": "bool"
        }
      ],
      "stateMutability": "view",
      "type": "function"
    },
    {
      "inputs": [
        {
          "internalType": "uint256",
          "name": "",
          "type": "uint256"
        }
      ],
      "name": "escrowAmtsBNB",
      "outputs": [
        {
          "internalType": "uint256",
          "name": "",
          "type": "uint256"
        }
      ],
      "stateMutability": "view",
      "type": "function"
    },
    {
      "inputs": [
        {
          "internalType": "uint256",
          "name": "",
          "type": "uint256"
        }
      ],
      "name": "escrowAmtsToken",
      "outputs": [
        {
          "internalType": "uint256",
          "name": "",
          "type": "uint256"
        }
      ],
      "stateMutability": "view",
      "type": "function"
    },
    {
      "inputs": [
        {
          "internalType": "uint256",
          "name": "",
          "type": "uint256"
        }
      ],
      "name": "getEscrow",
      "outputs": [
        {
          "internalType": "uint256",
          "name": "id",
          "type": "uint256"
        },
        {
          "internalType": "address",
          "name": "buyer",
          "type": "address"
        },
        {
          "internalType": "address payable",
          "name": "seller",
          "type": "address"
        },
        {
          "internalType": "bool",
          "name": "payType",
          "type": "bool"
        },
        {
          "internalType": "uint256",
          "name": "amount",
          "type": "uint256"
        },
        {
          "internalType": "bool",
          "name": "sellerConfirmation",
          "type": "bool"
        },
        {
          "internalType": "bool",
          "name": "buyerConfirmation",
          "type": "bool"
        },
        {
          "internalType": "uint256",
          "name": "start",
          "type": "uint256"
        },
        {
          "internalType": "uint256",
          "name": "timeInDays",
          "type": "uint256"
        },
        {
          "internalType": "enum CustomisedEscrow.State",
          "name": "currentState",
          "type": "uint8"
        }
      ],
      "stateMutability": "view",
      "type": "function"
    },
    {
      "inputs": [],
      "name": "owner",
      "outputs": [
        {
          "internalType": "address",
          "name": "",
          "type": "address"
        }
      ],
      "stateMutability": "view",
      "type": "function"
    },
    {
      "inputs": [],
      "name": "timeLimitInDays",
      "outputs": [
        {
          "internalType": "uint256",
          "name": "",
          "type": "uint256"
        }
      ],
      "stateMutability": "view",
      "type": "function"
    },
    {
      "inputs": [],
      "name": "token",
      "outputs": [
        {
          "internalType": "address",
          "name": "",
          "type": "address"
        }
      ],
      "stateMutability": "view",
      "type": "function"
    },
    {
      "inputs": [],
      "name": "totalEscrows",
      "outputs": [
        {
          "internalType": "uint256",
          "name": "",
          "type": "uint256"
        }
      ],
      "stateMutability": "view",
      "type": "function"
    },
    {
      "inputs": [
        {
          "internalType": "address payable",
          "name": "_seller",
          "type": "address"
        },
        {
          "internalType": "uint256",
          "name": "amt",
          "type": "uint256"
        },
        {
          "internalType": "uint256",
          "name": "timeInDays",
          "type": "uint256"
        }
      ],
      "name": "createEscrowBNB",
      "outputs": [],
      "stateMutability": "payable",
      "type": "function"
    },
    {
      "inputs": [
        {
          "internalType": "address payable",
          "name": "_seller",
          "type": "address"
        },
        {
          "internalType": "uint256",
          "name": "amt",
          "type": "uint256"
        },
        {
          "internalType": "uint256",
          "name": "timeInDays",
          "type": "uint256"
        }
      ],
      "name": "createEscrowToken",
      "outputs": [],
      "stateMutability": "nonpayable",
      "type": "function"
    },
    {
      "inputs": [
        {
          "internalType": "uint256",
          "name": "_id",
          "type": "uint256"
        }
      ],
      "name": "updateDelivery",
      "outputs": [],
      "stateMutability": "nonpayable",
      "type": "function"
    },
    {
      "inputs": [
        {
          "internalType": "uint256",
          "name": "_id",
          "type": "uint256"
        }
      ],
      "name": "updateSellerStatus",
      "outputs": [],
      "stateMutability": "nonpayable",
      "type": "function"
    },
    {
      "inputs": [
        {
          "internalType": "uint256",
          "name": "id",
          "type": "uint256"
        }
      ],
      "name": "raiseDispute",
      "outputs": [],
      "stateMutability": "nonpayable",
      "type": "function"
    },
    {
      "inputs": [
        {
          "internalType": "uint256",
          "name": "id",
          "type": "uint256"
        },
        {
          "internalType": "bool",
          "name": "withdrawParty",
          "type": "bool"
        }
      ],
      "name": "approveForWithdraw",
      "outputs": [],
      "stateMutability": "nonpayable",
      "type": "function"
    },
    {
      "inputs": [
        {
          "internalType": "address",
          "name": "_token",
          "type": "address"
        }
      ],
      "name": "changeToken",
      "outputs": [],
      "stateMutability": "nonpayable",
      "type": "function"
    }
  ],
  "bytecode": "0x60806040523480156200001157600080fd5b5060405162002676380380620026768339818101604052810190620000379190620000fd565b336000806101000a81548173ffffffffffffffffffffffffffffffffffffffff021916908373ffffffffffffffffffffffffffffffffffffffff16021790555081600360006101000a81548173ffffffffffffffffffffffffffffffffffffffff021916908373ffffffffffffffffffffffffffffffffffffffff160217905550600060098190555080600a819055505050620001b0565b600081519050620000e0816200017c565b92915050565b600081519050620000f78162000196565b92915050565b600080604083850312156200011157600080fd5b60006200012185828601620000cf565b92505060206200013485828601620000e6565b9150509250929050565b60006200014b8262000152565b9050919050565b600073ffffffffffffffffffffffffffffffffffffffff82169050919050565b6000819050919050565b62000187816200013e565b81146200019357600080fd5b50565b620001a18162000172565b8114620001ad57600080fd5b50565b6124b680620001c06000396000f3fe6080604052600436106100e85760003560e01c806366829b161161008a578063a5c1674e11610059578063a5c1674e146102ee578063d2e56a2f14610317578063fc0c546a14610340578063fd3fdf231461036b576100e8565b806366829b161461022b578063769f0269146102545780637d19e5961461027d5780638da5cb5b146102c3576100e8565b8063429b62e5116100c6578063429b62e51461015d57806357416bb71461019a5780635e28327a146101d757806363ee7c8d14610200576100e8565b80630c2b4c9c146100ed57806323d885f0146101185780633b3d074614610134575b600080fd5b3480156100f957600080fd5b506101026103a8565b60405161010f9190611f9b565b60405180910390f35b610132600480360381019061012d9190611b98565b6103ae565b005b34801561014057600080fd5b5061015b60048036038101906101569190611c10565b6106e8565b005b34801561016957600080fd5b50610184600480360381019061017f9190611b6f565b610b0c565b6040516101919190611ea0565b60405180910390f35b3480156101a657600080fd5b506101c160048036038101906101bc9190611c10565b610b2c565b6040516101ce9190611f9b565b60405180910390f35b3480156101e357600080fd5b506101fe60048036038101906101f99190611b98565b610b44565b005b34801561020c57600080fd5b50610215610fb6565b6040516102229190611f9b565b60405180910390f35b34801561023757600080fd5b50610252600480360381019061024d9190611b6f565b610fbc565b005b34801561026057600080fd5b5061027b60048036038101906102769190611c62565b611058565b005b34801561028957600080fd5b506102a4600480360381019061029f9190611c10565b611249565b6040516102ba9a99989796959493929190611fb6565b60405180910390f35b3480156102cf57600080fd5b506102d8611311565b6040516102e59190611e25565b60405180910390f35b3480156102fa57600080fd5b5061031560048036038101906103109190611c10565b611335565b005b34801561032357600080fd5b5061033e60048036038101906103399190611c10565b611685565b005b34801561034c57600080fd5b506103556119a9565b6040516103629190611e25565b60405180910390f35b34801561037757600080fd5b50610392600480360381019061038d9190611c10565b6119cf565b60405161039f9190611f9b565b60405180910390f35b600a5481565b813410156103bb57600080fd5b600a54811115610400576040517f08c379a00000000000000000000000000000000000000000000000000000000081526004016103f790611efb565b60405180910390fd5b60096000815480929190610413906121fb565b9190505550600060095490506040518061014001604052808281526020013373ffffffffffffffffffffffffffffffffffffffff1681526020018573ffffffffffffffffffffffffffffffffffffffff168152602001600115158152602001848152602001600015158152602001600015158152602001428152602001838152602001600060038111156104d0577f4e487b7100000000000000000000000000000000000000000000000000000000600052602160045260246000fd5b815250600460008381526020019081526020016000206000820151816000015560208201518160010160006101000a81548173ffffffffffffffffffffffffffffffffffffffff021916908373ffffffffffffffffffffffffffffffffffffffff16021790555060408201518160020160006101000a81548173ffffffffffffffffffffffffffffffffffffffff021916908373ffffffffffffffffffffffffffffffffffffffff16021790555060608201518160020160146101000a81548160ff0219169083151502179055506080820151816003015560a08201518160040160006101000a81548160ff02191690831515021790555060c08201518160040160016101000a81548160ff02191690831515021790555060e0820151816005015561010082015181600601556101208201518160070160006101000a81548160ff0219169083600381111561064f577f4e487b7100000000000000000000000000000000000000000000000000000000600052602160045260246000fd5b021790555090505034600560008381526020019081526020016000208190555060006007600083815260200190815260200160002060006101000a81548160ff0219169083151502179055507fe9934a96669561e4a551e6934134d3825b3ef169966a436a8a0a018c5d960d64813386600187428860006040516106da989796959493929190612052565b60405180910390a150505050565b806004600082815260200190815260200160002060010160009054906101000a900473ffffffffffffffffffffffffffffffffffffffff1673ffffffffffffffffffffffffffffffffffffffff163373ffffffffffffffffffffffffffffffffffffffff161461075757600080fd5b61077a6004600084815260200190815260200160002060060154620151806119e7565b4211156107bc576040517f08c379a00000000000000000000000000000000000000000000000000000000081526004016107b390611f1b565b60405180910390fd5b6004600083815260200190815260200160002060040160009054906101000a900460ff1661081f576040517f08c379a000000000000000000000000000000000000000000000000000000000815260040161081690611edb565b60405180910390fd5b6004600083815260200190815260200160002060040160019054906101000a900460ff1615610883576040517f08c379a000000000000000000000000000000000000000000000000000000000815260040161087a90611f7b565b60405180910390fd5b6007600083815260200190815260200160002060009054906101000a900460ff16156108ae57600080fd5b6004600083815260200190815260200160002060020160149054906101000a900460ff161561094e5761094960056000848152602001908152602001600020546004600085815260200190815260200160002060020160009054906101000a900473ffffffffffffffffffffffffffffffffffffffff1673ffffffffffffffffffffffffffffffffffffffff166119fd90919063ffffffff16565b610a74565b6004600083815260200190815260200160002060020160149054906101000a900460ff16610a7357600360009054906101000a900473ffffffffffffffffffffffffffffffffffffffff1673ffffffffffffffffffffffffffffffffffffffff1663a9059cbb6004600085815260200190815260200160002060020160009054906101000a900473ffffffffffffffffffffffffffffffffffffffff1660046000868152602001908152602001600020600301546040518363ffffffff1660e01b8152600401610a1f929190611e40565b602060405180830381600087803b158015610a3957600080fd5b505af1158015610a4d573d6000803e3d6000fd5b505050506040513d601f19601f82011682018060405250810190610a719190611be7565b505b5b60016004600084815260200190815260200160002060040160016101000a81548160ff02191690831515021790555060026004600084815260200190815260200160002060070160006101000a81548160ff02191690836003811115610b03577f4e487b7100000000000000000000000000000000000000000000000000000000600052602160045260246000fd5b02179055505050565b60026020528060005260406000206000915054906101000a900460ff1681565b60066020528060005260406000206000915090505481565b81600360009054906101000a900473ffffffffffffffffffffffffffffffffffffffff1673ffffffffffffffffffffffffffffffffffffffff166370a08231336040518263ffffffff1660e01b8152600401610ba09190611e25565b60206040518083038186803b158015610bb857600080fd5b505afa158015610bcc573d6000803e3d6000fd5b505050506040513d601f19601f82011682018060405250810190610bf09190611c39565b1015610bfb57600080fd5b600360009054906101000a900473ffffffffffffffffffffffffffffffffffffffff1673ffffffffffffffffffffffffffffffffffffffff166323b872dd3330856040518463ffffffff1660e01b8152600401610c5a93929190611e69565b602060405180830381600087803b158015610c7457600080fd5b505af1158015610c88573d6000803e3d6000fd5b505050506040513d601f19601f82011682018060405250810190610cac9190611be7565b610cb557600080fd5b600a54811115610cfa576040517f08c379a0000000000000000000000000000000000000000000000000000000008152600401610cf190611efb565b60405180910390fd5b60096000815480929190610d0d906121fb565b9190505550600060095490506040518061014001604052808281526020013373ffffffffffffffffffffffffffffffffffffffff1681526020018573ffffffffffffffffffffffffffffffffffffffff16815260200160001515815260200184815260200160001515815260200160001515815260200142815260200183815260200160006003811115610dca577f4e487b7100000000000000000000000000000000000000000000000000000000600052602160045260246000fd5b815250600460008381526020019081526020016000206000820151816000015560208201518160010160006101000a81548173ffffffffffffffffffffffffffffffffffffffff021916908373ffffffffffffffffffffffffffffffffffffffff16021790555060408201518160020160006101000a81548173ffffffffffffffffffffffffffffffffffffffff021916908373ffffffffffffffffffffffffffffffffffffffff16021790555060608201518160020160146101000a81548160ff0219169083151502179055506080820151816003015560a08201518160040160006101000a81548160ff02191690831515021790555060c08201518160040160016101000a81548160ff02191690831515021790555060e0820151816005015561010082015181600601556101208201518160070160006101000a81548160ff02191690836003811115610f49577f4e487b7100000000000000000000000000000000000000000000000000000000600052602160045260246000fd5b02179055509050508260066000838152602001908152602001600020819055507fe9934a96669561e4a551e6934134d3825b3ef169966a436a8a0a018c5d960d6481338660008742886000604051610fa8989796959493929190612052565b60405180910390a150505050565b60095481565b60008054906101000a900473ffffffffffffffffffffffffffffffffffffffff1673ffffffffffffffffffffffffffffffffffffffff163373ffffffffffffffffffffffffffffffffffffffff161461101457600080fd5b80600360006101000a81548173ffffffffffffffffffffffffffffffffffffffff021916908373ffffffffffffffffffffffffffffffffffffffff16021790555050565b60008054906101000a900473ffffffffffffffffffffffffffffffffffffffff1673ffffffffffffffffffffffffffffffffffffffff163373ffffffffffffffffffffffffffffffffffffffff16146110b057600080fd5b6003808111156110e9577f4e487b7100000000000000000000000000000000000000000000000000000000600052602160045260246000fd5b6004600084815260200190815260200160002060070160009054906101000a900460ff166003811115611145577f4e487b7100000000000000000000000000000000000000000000000000000000600052602160045260246000fd5b1461114f57600080fd5b80156111cc576111c760056000848152602001908152602001600020546004600085815260200190815260200160002060010160009054906101000a900473ffffffffffffffffffffffffffffffffffffffff1673ffffffffffffffffffffffffffffffffffffffff166119fd90919063ffffffff16565b611245565b806112445761124360056000848152602001908152602001600020546004600085815260200190815260200160002060020160009054906101000a900473ffffffffffffffffffffffffffffffffffffffff1673ffffffffffffffffffffffffffffffffffffffff166119fd90919063ffffffff16565b5b5b5050565b60046020528060005260406000206000915090508060000154908060010160009054906101000a900473ffffffffffffffffffffffffffffffffffffffff16908060020160009054906101000a900473ffffffffffffffffffffffffffffffffffffffff16908060020160149054906101000a900460ff16908060030154908060040160009054906101000a900460ff16908060040160019054906101000a900460ff16908060050154908060060154908060070160009054906101000a900460ff1690508a565b60008054906101000a900473ffffffffffffffffffffffffffffffffffffffff1681565b6004600082815260200190815260200160002060020160009054906101000a900473ffffffffffffffffffffffffffffffffffffffff1673ffffffffffffffffffffffffffffffffffffffff163373ffffffffffffffffffffffffffffffffffffffff16148061140657506004600082815260200190815260200160002060010160009054906101000a900473ffffffffffffffffffffffffffffffffffffffff1673ffffffffffffffffffffffffffffffffffffffff163373ffffffffffffffffffffffffffffffffffffffff16145b61140f57600080fd5b6004600082815260200190815260200160002060040160019054906101000a900460ff16158061146057506004600082815260200190815260200160002060040160009054906101000a900460ff16155b61146957600080fd5b6007600082815260200190815260200160002060009054906101000a900460ff161561149457600080fd5b6003808111156114cd577f4e487b7100000000000000000000000000000000000000000000000000000000600052602160045260246000fd5b6004600083815260200190815260200160002060070160009054906101000a900460ff166003811115611529577f4e487b7100000000000000000000000000000000000000000000000000000000600052602160045260246000fd5b141561153457600080fd5b60036004600083815260200190815260200160002060070160006101000a81548160ff02191690836003811115611594577f4e487b7100000000000000000000000000000000000000000000000000000000600052602160045260246000fd5b021790555060018190806001815401808255809150506001900390600052602060002001600090919091909150553373ffffffffffffffffffffffffffffffffffffffff166008600083815260200190815260200160002060009054906101000a905050506004600082815260200190815260200160002060070160009054906101000a900460ff166003811115611655577f4e487b7100000000000000000000000000000000000000000000000000000000600052602160045260246000fd5b817ffafe884515ca1fa5e0bf815ce87ef00b2cdaa0eee590d20376604937937a10bf60405160405180910390a350565b806004600082815260200190815260200160002060020160009054906101000a900473ffffffffffffffffffffffffffffffffffffffff1673ffffffffffffffffffffffffffffffffffffffff163373ffffffffffffffffffffffffffffffffffffffff16146116f457600080fd5b611717600460008481526020019081526020016000206006015462014ff06119e7565b421115611759576040517f08c379a000000000000000000000000000000000000000000000000000000000815260040161175090611f1b565b60405180910390fd5b60006003811115611793577f4e487b7100000000000000000000000000000000000000000000000000000000600052602160045260246000fd5b6004600084815260200190815260200160002060070160009054906101000a900460ff1660038111156117ef577f4e487b7100000000000000000000000000000000000000000000000000000000600052602160045260246000fd5b146117f957600080fd5b6007600083815260200190815260200160002060009054906101000a900460ff161561182457600080fd5b6004600083815260200190815260200160002060040160019054906101000a900460ff1615611888576040517f08c379a000000000000000000000000000000000000000000000000000000000815260040161187f90611ebb565b60405180910390fd5b60016004600084815260200190815260200160002060040160006101000a81548160ff02191690831515021790555060016004600084815260200190815260200160002060070160006101000a81548160ff02191690836003811115611917577f4e487b7100000000000000000000000000000000000000000000000000000000600052602160045260246000fd5b02179055506004600083815260200190815260200160002060070160009054906101000a900460ff166003811115611978577f4e487b7100000000000000000000000000000000000000000000000000000000600052602160045260246000fd5b827ffafe884515ca1fa5e0bf815ce87ef00b2cdaa0eee590d20376604937937a10bf60405160405180910390a35050565b600360009054906101000a900473ffffffffffffffffffffffffffffffffffffffff1681565b60056020528060005260406000206000915090505481565b600081836119f591906120ec565b905092915050565b80471015611a40576040517f08c379a0000000000000000000000000000000000000000000000000000000008152600401611a3790611f5b565b60405180910390fd5b60008273ffffffffffffffffffffffffffffffffffffffff1682604051611a6690611e10565b60006040518083038185875af1925050503d8060008114611aa3576040519150601f19603f3d011682016040523d82523d6000602084013e611aa8565b606091505b5050905080611aec576040517f08c379a0000000000000000000000000000000000000000000000000000000008152600401611ae390611f3b565b60405180910390fd5b505050565b600081359050611b0081612424565b92915050565b600081359050611b158161243b565b92915050565b600081359050611b2a81612452565b92915050565b600081519050611b3f81612452565b92915050565b600081359050611b5481612469565b92915050565b600081519050611b6981612469565b92915050565b600060208284031215611b8157600080fd5b6000611b8f84828501611af1565b91505092915050565b600080600060608486031215611bad57600080fd5b6000611bbb86828701611b06565b9350506020611bcc86828701611b45565b9250506040611bdd86828701611b45565b9150509250925092565b600060208284031215611bf957600080fd5b6000611c0784828501611b30565b91505092915050565b600060208284031215611c2257600080fd5b6000611c3084828501611b45565b91505092915050565b600060208284031215611c4b57600080fd5b6000611c5984828501611b5a565b91505092915050565b60008060408385031215611c7557600080fd5b6000611c8385828601611b45565b9250506020611c9485828601611b1b565b9150509250929050565b611ca7816121b3565b82525050565b611cb681612158565b82525050565b611cc581612146565b82525050565b611cd48161216a565b82525050565b611ce3816121c5565b82525050565b6000611cf66017836120db565b9150611d01826122a2565b602082019050919050565b6000611d196021836120db565b9150611d24826122cb565b604082019050919050565b6000611d3c601a836120db565b9150611d478261231a565b602082019050919050565b6000611d5f6016836120db565b9150611d6a82612343565b602082019050919050565b6000611d82603a836120db565b9150611d8d8261236c565b604082019050919050565b6000611da5601d836120db565b9150611db0826123bb565b602082019050919050565b6000611dc86000836120d0565b9150611dd3826123e4565b600082019050919050565b6000611deb6017836120db565b9150611df6826123e7565b602082019050919050565b611e0a816121a9565b82525050565b6000611e1b82611dbb565b9150819050919050565b6000602082019050611e3a6000830184611cbc565b92915050565b6000604082019050611e556000830185611c9e565b611e626020830184611e01565b9392505050565b6000606082019050611e7e6000830186611cbc565b611e8b6020830185611cbc565b611e986040830184611e01565b949350505050565b6000602082019050611eb56000830184611ccb565b92915050565b60006020820190508181036000830152611ed481611ce9565b9050919050565b60006020820190508181036000830152611ef481611d0c565b9050919050565b60006020820190508181036000830152611f1481611d2f565b9050919050565b60006020820190508181036000830152611f3481611d52565b9050919050565b60006020820190508181036000830152611f5481611d75565b9050919050565b60006020820190508181036000830152611f7481611d98565b9050919050565b60006020820190508181036000830152611f9481611dde565b9050919050565b6000602082019050611fb06000830184611e01565b92915050565b600061014082019050611fcc600083018d611e01565b611fd9602083018c611cbc565b611fe6604083018b611cad565b611ff3606083018a611ccb565b6120006080830189611e01565b61200d60a0830188611ccb565b61201a60c0830187611ccb565b61202760e0830186611e01565b612035610100830185611e01565b612043610120830184611cda565b9b9a5050505050505050505050565b600061010082019050612068600083018b611e01565b612075602083018a611cbc565b6120826040830189611cad565b61208f6060830188611ccb565b61209c6080830187611e01565b6120a960a0830186611e01565b6120b660c0830185611e01565b6120c360e0830184611cda565b9998505050505050505050565b600081905092915050565b600082825260208201905092915050565b60006120f7826121a9565b9150612102836121a9565b9250817fffffffffffffffffffffffffffffffffffffffffffffffffffffffffffffffff048311821515161561213b5761213a612244565b5b828202905092915050565b600061215182612189565b9050919050565b600061216382612189565b9050919050565b60008115159050919050565b600081905061218482612410565b919050565b600073ffffffffffffffffffffffffffffffffffffffff82169050919050565b6000819050919050565b60006121be826121d7565b9050919050565b60006121d082612176565b9050919050565b60006121e2826121e9565b9050919050565b60006121f482612189565b9050919050565b6000612206826121a9565b91507fffffffffffffffffffffffffffffffffffffffffffffffffffffffffffffffff82141561223957612238612244565b5b600182019050919050565b7f4e487b7100000000000000000000000000000000000000000000000000000000600052601160045260246000fd5b7f4e487b7100000000000000000000000000000000000000000000000000000000600052602160045260246000fd5b7f627579657220616c726561647920636f6e6669726d6564000000000000000000600082015250565b7f53656c6c657220686173206e6f7420436f6e6669726d65642064656c6976657260008201527f7900000000000000000000000000000000000000000000000000000000000000602082015250565b7f74696d65506572696f64206d6f7265207468616e206c696d6974000000000000600082015250565b7f457363726f7720506572696f6420657863656564656400000000000000000000600082015250565b7f416464726573733a20756e61626c6520746f2073656e642076616c75652c207260008201527f6563697069656e74206d61792068617665207265766572746564000000000000602082015250565b7f416464726573733a20696e73756666696369656e742062616c616e6365000000600082015250565b50565b7f427579657220616c726561647920636f6e6669726d6564000000000000000000600082015250565b6004811061242157612420612273565b5b50565b61242d81612146565b811461243857600080fd5b50565b61244481612158565b811461244f57600080fd5b50565b61245b8161216a565b811461246657600080fd5b50565b612472816121a9565b811461247d57600080fd5b5056fea2646970667358221220a35ad8bce1302d2cd15e8f1c77def76b6a8ca90bcc6227993a255e5a0db7fef264736f6c63430008010033",
  "immutableReferences": {},
  "source": "// SPDX-License-Identifier: MIT\n\nimport {IERC20} from \"@openzeppelin/contracts/token/ERC20/IERC20.sol\";\nimport \"@openzeppelin/contracts/utils/math/SafeMath.sol\";\nimport \"@openzeppelin/contracts/utils/Address.sol\";\n\npragma solidity ^0.8.0;\n\ncontract CustomisedEscrow{\n\n    using SafeMath for uint256;\n    using Address for address payable;\n\n    enum State{initiated,delivered,paid,disputed}\n\n    struct instance{\n        uint256 id;\n        address buyer;\n        address payable seller;\n        bool payType; // true if BNB/false if tokens\n        uint256 amount;\n        bool sellerConfirmation;\n        bool buyerConfirmation;\n        uint256 start;\n        uint256 timeInDays;\n        State currentState;\n    }\n\n    // variables\n\n    address public owner;\n\n    uint256[] disputedEscrows;\n\n    mapping(address=>bool) public admins;\n\n    address public token;\n\n    mapping(uint256=>instance) public getEscrow;\n\n    mapping(uint256=>uint256) public escrowAmtsBNB;\n\n    mapping(uint256=>uint256) public escrowAmtsToken;\n\n    mapping (uint256=>bool) approvedForWithdraw;\n\n    mapping(uint256=> address) disputedRaisedBy;\n\n    uint256 public totalEscrows;\n\n    uint256 public timeLimitInDays;\n\n    // events\n\n    event EscrowCreated(\n        uint256 id,\n        address buyer,\n        address payable seller,\n        bool payType,\n        uint256 amount,\n        uint256 start,\n        uint256 timeInDays,\n        State currentState\n    );\n\n    event StateChanged(uint256 indexed id,State indexed _state);\n\n    //modifiers\n\n    modifier onlyOwner() {\n        require(msg.sender == owner);\n        _;\n    }\n\n    modifier onlyAdmin() {\n        require(admins[msg.sender]==true);\n        _;\n    }\n\n    modifier onlyBuyer(uint _id){\n        require(msg.sender == getEscrow[_id].buyer);\n        _;\n    }\n\n    modifier onlySeller(uint _id){\n        require(msg.sender == getEscrow[_id].seller);\n        _;\n    }\n\n    constructor(address _token,uint256 _timeLimitInDays){\n        owner = msg.sender;\n        token = _token;\n        totalEscrows =0;\n        timeLimitInDays = _timeLimitInDays;\n    }\n\n    function createEscrowBNB(address payable _seller,uint256 amt,uint256 timeInDays) public payable{\n        require(msg.value >= amt);\n        require(timeInDays <= timeLimitInDays,\"timePeriod more than limit\");\n        totalEscrows++;\n        uint256 id = totalEscrows;\n        getEscrow[id]= instance(id,msg.sender,_seller,true,amt,false,false,block.timestamp,timeInDays,State.initiated);\n        escrowAmtsBNB[id] = msg.value;\n        approvedForWithdraw[id] = false;\n        emit EscrowCreated(id,msg.sender,_seller,true,amt,block.timestamp,timeInDays,State.initiated);\n    }\n\n    function createEscrowToken(address payable _seller,uint256 amt,uint256 timeInDays) public {\n        require(IERC20(token).balanceOf(msg.sender) >= amt);\n        require(IERC20(token).transferFrom(msg.sender,address(this),amt));\n        require(timeInDays <= timeLimitInDays,\"timePeriod more than limit\");\n        totalEscrows++;\n        uint256 id = totalEscrows;\n        getEscrow[id]= instance(id,msg.sender,_seller,false,amt,false,false,block.timestamp,timeInDays,State.initiated);\n        escrowAmtsToken[id] = amt;\n        emit EscrowCreated(id,msg.sender,_seller,false,amt,block.timestamp,timeInDays,State.initiated);\n    }\n\n    function updateDelivery(uint256 _id) public onlyBuyer(_id){\n        require(block.timestamp <= SafeMath.mul(getEscrow[_id].timeInDays,86400),\"Escrow Period exceeded\");\n        require(getEscrow[_id].sellerConfirmation,\"Seller has not Confirmed delivery\");\n        require(!getEscrow[_id].buyerConfirmation,\"Buyer already confirmed\");\n        require(!approvedForWithdraw[_id]);\n        if(getEscrow[_id].payType){\n            getEscrow[_id].seller.sendValue(escrowAmtsBNB[_id]);\n        }else if(!getEscrow[_id].payType){\n            IERC20(token).transfer(getEscrow[_id].seller,getEscrow[_id].amount);\n        }\n        getEscrow[_id].buyerConfirmation=true;\n        getEscrow[_id].currentState = State.paid;\n    }\n\n    function updateSellerStatus(uint256 _id) public onlySeller(_id){\n        require(block.timestamp <= SafeMath.mul(getEscrow[_id].timeInDays,86000),\"Escrow Period exceeded\");\n        require(getEscrow[_id].currentState == State.initiated);\n        require(!approvedForWithdraw[_id]);\n        require(!getEscrow[_id].buyerConfirmation,\"buyer already confirmed\");\n        getEscrow[_id].sellerConfirmation = true;\n        getEscrow[_id].currentState = State.delivered;\n        emit StateChanged(_id,getEscrow[_id].currentState);\n    }\n\n    function raiseDispute(uint256 id) public{\n        require(msg.sender == getEscrow[id].seller || msg.sender == getEscrow[id].buyer);\n        require(!getEscrow[id].buyerConfirmation || !getEscrow[id].sellerConfirmation);\n        require(!approvedForWithdraw[id]);\n        require(getEscrow[id].currentState != State.disputed);\n        getEscrow[id].currentState = State.disputed;\n        disputedEscrows.push(id);\n        disputedRaisedBy[id] == msg.sender;\n        emit StateChanged(id, getEscrow[id].currentState);\n    }\n\n    function approveForWithdraw(uint256 id,bool withdrawParty) public onlyOwner{\n        // withdrawParty -- true if buyer,false if seller \n        require(getEscrow[id].currentState == State.disputed);\n        if(withdrawParty){\n            payable(getEscrow[id].buyer).sendValue(escrowAmtsBNB[id]);\n        }\n        else if(!withdrawParty){\n            getEscrow[id].seller.sendValue(escrowAmtsBNB[id]);\n        }\n    }\n\n    function changeToken(address _token) public onlyOwner{\n        token = _token;\n    }\n\n}",
  "sourcePath": "/Users/ithihasreddy/Desktop/Escrow/contracts/Escrow.sol",
  "compiler": {
    "name": "solc",
    "version": "0.8.1+commit.df193b15.Emscripten.clang"
  },
  "schemaVersion": "3.4.0",
  "updatedAt": "2021-08-05T11:15:25.269Z",
  "devdoc": {
    "kind": "dev",
    "methods": {},
    "version": 1
  },
  "userdoc": {
    "kind": "user",
    "methods": {},
    "version": 1
  }
}